{
  "contractName": "TodoList",
  "abi": [
    {
      "constant": true,
      "inputs": [],
      "name": "taskCount",
      "outputs": [
        {
          "name": "",
          "type": "uint256"
        }
      ],
      "payable": false,
      "stateMutability": "view",
      "type": "function",
      "signature": "0xb6cb58a5"
    }
  ],
  "bytecode": "0x608060405260008055348015601357600080fd5b50609e806100226000396000f3fe608060405260043610603f576000357c0100000000000000000000000000000000000000000000000000000000900463ffffffff168063b6cb58a5146044575b600080fd5b348015604f57600080fd5b506056606c565b6040518082815260200191505060405180910390f35b6000548156fea165627a7a7230582019f5625a630ed555adba88fe3126f6a4ca734a4d41b10a26c3263a9a6d869de30029",
  "source": "pragma solidity ^0.5.0;\r\n\r\ncontract TodoList {\r\n  uint public taskCount = 0;\r\n\r\n//   struct Task {\r\n//     uint id;\r\n//     string content;\r\n//     bool completed;\r\n//   }\r\n\r\n//   mapping(uint => Task) public tasks;\r\n\r\n//   event TaskCreated(\r\n//     uint id,\r\n//     string content,\r\n//     bool completed\r\n//   );\r\n\r\n//   event TaskCompleted(\r\n//     uint id,\r\n//     bool completed\r\n//   );\r\n\r\n//   constructor() public {\r\n//     createTask(\"Check out dappuniversity.com\");\r\n//   }\r\n\r\n//   function createTask(string memory _content) public {\r\n//     taskCount ++;\r\n//     tasks[taskCount] = Task(taskCount, _content, false);\r\n//     emit TaskCreated(taskCount, _content, false);\r\n//   }\r\n\r\n//   function toggleCompleted(uint _id) public {\r\n//     Task memory _task = tasks[_id];\r\n//     _task.completed = !_task.completed;\r\n//     tasks[_id] = _task;\r\n//     emit TaskCompleted(_id, _task.completed);\r\n//   }\r\n\r\n}\r\n",
  "sourcePath": "C:/Projects/eth-todo-list/contracts/TodoList.sol",
  "compiler": {
    "name": "solc",
    "version": "0.5.0+commit.1d4f565a.Emscripten.clang"
  },
  "schemaVersion": "3.0.1",
  "updatedAt": "2024-12-22T10:35:43.984Z",
  "devdoc": {
    "methods": {}
  },
  "userdoc": {
    "methods": {}
  }
}